:040000000C948B01D0
:080020000C941E0D0C94A00CC1
:14005400000000000000000000000000000000000000000098
:14006800000000000000000000000000000000000000000084
:14007C00000000000000000000000000000000000000000070
:1400900000000000000000000000000000000000000000005C
:1400A400000000000000000000000000000000000000000048
:1400B800000000000000000000000000000000000000000034
:1400CC00000000000000000000000000000000000000000020
:1400E00000000000000000000000000000000000000000000C
:1400F4000000000000000000000000000000000000000000F8
:140108000000000000000000000000000000000000000000E3
:14011C000000000000000000000000000000000000000000CF
:140130000000000000000000000000000000000000000000BB
:140144000000000000000000000000000000000000000000A7
:14015800000000000000000000000000000000000000000093
:14016C0000000000000000000000000000000100000000007E
:140180000000000000C0F9A4B0999282F88090FF8883C6A138
:14019400868E90A3A189C182FFC0F9A4B0999282F88090FFE3
:1401A800FEF78883C6A1868E90A3A189C182FF000000000029
:1401BC000000000000000000000000000000000F0A04000012
:1401D000010A00060004000050001400060300010000000098
:1401E400000000010100000000000000000000000000000005
:1401F8000000000000000000000000000000000000000000F3
:14020C000000000000000000000000000000000000000000DE
:140220000000000000000000000000000000000000000000CA
:140234000000000000000000000000000000000000000000B6
:140248000000000000000000000000000000000000000000A2
:14025C0000000000000000000000000000000000000000008E
:1402700000000000000000000000000000000000000000007A
:14028400000000000000000000000000000000000000000066
:14029800000000000000000000000000000000000000000052
:1402AC0000000000000000000000000000000000000000003E
:1402C00000000000000000000000000000000000000000002A
:1402D400000000000000000000000000000000000000000016
:1402E800000000000000000000000000000000000000000002
:1402FC000000000000000000000000000000000000000000EE
:050310000000000000E8
:14031600CFE5D4E0CDBFDEBFC451D0400AEA08830024E9E1B0
:14032A00F3E013E0E533F10711F00192FBCF0083ECE5F0E067
:14033E00A0E6B0E013E000E00BBFE531F10721F0C8953196B5
:140352000D92F9CF0E94920DFFCF0E943112AA24442784B3CC
:14036600836084BB85B3836085BB0AE010E00E94DC0EA3B24B
:14037A00A0946A2D7727637070706030670769F06130E0E0AB
:14038E007E07B1F06230E0E07E0701F16330E0E07E0751F152
:1403A20037C080916200880F83708093620080916A00880FCC
:1403B600837080936A002AC080916200880F816083708093E8
:1403CA00620080916A00880F837080936A001CC080916200EC
:1403DE00880F83708093620080916A00880F81608370809313
:1403F2006A000EC080916200880F816083708093620080915B
:140406006A00880F8160837080936A00442764C1242E332457
:14041A00220C331C220C331C220C331C210181E690E0F1016C
:14042E00E80FF91F208080E690E0F201E80FF91F208282E629
:1404420090E0E42FFF27EE0FFF1FEE0FFF1FEE0FFF1FE80FB5
:14045600F91F608177276030670781F06130E0E07E0709F4B9
:14046A0044C06230E0E07E0709F47CC06330E0E07E0709F495
:14047E00B4C02DC181E690E0E42FFF27EE0FFF1FEE0FFF1FC2
:14049200EE0FFF1FE80FF91F81E0808386E690E0E42FFF27B3
:1404A600EE0FFF1FEE0FFF1FEE0FFF1FE80FF91F22242082FA
:1404BA0083E690E0E42FFF27EE0FFF1FEE0FFF1FEE0FFF1FCB
:1404CE00E80FF91F33243182208285E690E0E42FFF27EE0F4E
:1404E200FF1FEE0FFF1FEE0FFF1FE80FF91F2082F4C081E6E6
:1404F60090E0E42FFF27EE0FFF1FEE0FFF1FEE0FFF1FE80F01
:14050A00F91F82E0808386E690E0E42FFF27EE0FFF1FEE0F33
:14051E00FF1FEE0FFF1FE80FF91F81E0808387E690E0E42F2D
:14053200FF27EE0FFF1FEE0FFF1FEE0FFF1FE80FF91F2224E9
:14054600208285E690E0E42FFF27EE0FFF1FEE0FFF1FEE0FB8
:14055A00FF1FE80FF91F2082442301F4413009F0B8C0B7C009
:14056E0081E690E0E42FFF27EE0FFF1FEE0FFF1FEE0FFF1F18
:14058200E80FF91F84E0808387E690E0E42FFF27EE0FFF1FBE
:14059600EE0FFF1FEE0FFF1FE80FF91F81E0808386E690E0CC
:1405AA00E42FFF27EE0FFF1FEE0FFF1FEE0FFF1FE80FF91FA4
:1405BE002224208285E690E0E42FFF27EE0FFF1FEE0FFF1FF7
:1405D200EE0FFF1FE80FF91F2082442301F4413009F07BC048
:1405E6007AC081E690E0E42FFF27EE0FFF1FEE0FFF1FEE0F84
:1405FA00FF1FE80FF91F83E0808387E690E0E42FFF27EE0F47
:14060E00FF1FEE0FFF1FEE0FFF1FE80FF91F2224208283E624
:1406220090E0242E3324220C331C220C331C220C331C280EFE
:14063600391EF1018081918101969183808383E690E0E42FBA
:14064A00FF27EE0FFF1FEE0FFF1FEE0FFF1FE80FF91F208076
:14065E0031808EE190E08215930508F038C085E690E0E42FEB
:14067200FF27EE0FFF1FEE0FFF1FEE0FFF1FE80FF91F81E08D
:14068600808386E690E0E42FFF27EE0FFF1FEE0FFF1FEE0F15
:14069A00FF1FE80FF91F2224208289E190E0909371008093B6
:1406AE00700083E690E0E42FFF27EE0FFF1FEE0FFF1FEE0F83
:1406C200FF1FE80FF91F2090700030907100318220824423EA
:1406D60001F4413001F44395423008F499CE0C943812639724
:1406EA0082E090E0998388839E012B5F3F4F00E110E00E94D9
:1406FE00240E82E090E0998388839E01295F3F4F00E210E036
:140712000E94240E82E090E0998388839E01275F3F4F08E269
:1407260010E00E94240E82E090E0998388839E01255F3F4F51
:14073A0000E310E00E94240E82E090E0998388839E01235FEA
:14074E003F4F08E310E00E94240E82E090E0998388839E01C2
:14076200215F3F4F00E410E00E94240E82E090E099838883D4
:140776009E012F5E3F4F00E610E00E94240E2D8084E6829DD5
:14078A0010014E805524240C351C30922903209228032F8008
:14079E00829D100148845524240C351C30922703209226038A
:1407B2002984829D10014A845524240C351C309225032092F2
:1407C60024032B84829D10014C845524240C351C3092230367
:1407DA00209222032D84829D10014E845524240C351C3092C5
:1407EE002103209220032F84829D100148885524240C351C51
:1408020030921F0320921E032988829D10014A885524240CCF
:14081600351C30921D0320921C039498959AAA9AAB9A8091D5
:14082A0072008230E8F420902A03222009F449C0222420929D
:14083E002A0312E0082F0E94D611002349F482E0888321E0F9
:1408520000912803109129030E944F10809172008F5F809384
:14086600720031C0809172008530E0F420902A03222079F087
:14087A00222420922A038F5F809372002C8284E08A8386E04D
:14088E0088832AE009E00E94D31021E001E00E94370D21E00A
:1408A20002E00E94370D11C0222701E00E94370D222702E06E
:1408B6000E94370D81E08093EC0182E08093EB01222420928E
:1408CA00720063960895AA92AA98AB98C2D008EE13E00E9434
:1408DE00F30E013009F470D238D0013001F445D0A02E002361
:1408F20001F4A9900895AA9AAB9AAFD008EE13E00E94F30E93
:14090600013009F45DD20895089508EE13E00E94F30E013089
:14091A0009F454D20895089520906D002220B1F42090650053
:14092E00222091F481E08093EB0122242092CE0122E001E0E4
:140942000E94490D22E002E00E94490D00ED17E00E94E50E54
:14095600089500B311270870107015950795159507951595D7
:14096A000795013011F401E001C00027089500B311270470E2
:14097E0010701595079515950795002311F401E001C0002768
:1409920008950E943F12AE80BF80CC24DD24442755271BC0A1
:1409A600FA01EE0FFF1FEA0DFB1D208031802216330678F4EA
:1409BA00FA01EE0FFF1FEA0DFB1DC080D180FA01EE0FFF1F5D
:1409CE00EA0DFB1D3183208396014F5F5F4F4017510710F30A
:1409E2000C9446120E941D122897AA24BB2480E08C838D834D
:1409F6008E838F8380E0888389838A838B834427552717C07A
:140A0A00FA01EE0FFF1FE20FF31F20803180442455246880A5
:140A1E0079808A809B80620C731C841C951C688279828A8267
:140A32009B824F5F5F4F4017510730F3288039804A805B805F
:140A46002C823D824E825F820C811D812E813F8128960C9486
:140A5A0022120E9412122E9744275527CC24DD2466277727C6
:140A6E0080E08A838B838C838D83AA24BB2480E08A878B87AA
:140A82008C878D8780E08E838F838887898720902C03222076
:140A960009F493C1222420922C036BDF013099F458DF013064
:140AAA0081F400270E948C0E7801C7018C599F4F6C018CE76C
:140ABE0090E099838883960100E810E064DF80917A0090912F
:140AD2007B00019690937B0080937A00883BEBE09E0708F4A4
:140AE6006CC12224332430927B0020927A002CE730E000E8BE
:140AFA0010E074DF8DEE91E0E0918101F0918201EE0FFF1FA7
:140B0E00E80FF91F1183008323E030E000911E0310911F0325
:140B22000E9452115801C0908101D0908201C6018639E0E066
:140B36009E0748F48A159B0530F40196909382018093810195
:140B4A0006C0222433243092820120928101442755271DC0F7
:140B5E008DEE91E0FA01EE0FFF1FE80FF91F208031804424B9
:140B720037FC4094552447FC50946A807B808C809D80620C4C
:140B8600731C841C951C6A827B828C829D824F5F5F4F4A15AA
:140B9A005B0500F31501442455240A811B812C813D815A927F
:140BAE004A923A922A920E946C11B80180E08A838B838C836D
:140BC2008D8382E0888320917E010E944F1080917F019091BF
:140BD60080018A30E0E09E072CF47093800160937F0165C02F
:140BEA0020907F0130908001261A370A88EE93E082159305ED
:140BFE003CF460917F0170918001685E734053C020907F0104
:140C120030908001261A370A84E690E0821593053CF46091E2
:140C26007F01709180016456704041C020907F0130908001DC
:140C3A00261A370A8AE090E0821593053CF460917F0170917A
:140C4E0080016A5070402FC020907F01309080012B014218C1
:140C6200530888EE93E08415950524F4B10168517C4F1FC0DA
:140C760020907F01309080012B014218530884E690E08415A5
:140C8A00950524F4B1016C597F4F0FC020907F01309080011F
:140C9E002B01421853088AE090E0841595051CF4B101665FCD
:140CB2007F4FA0902403B090250300912603109127030A19F9
:140CC6001B0920912203309123030E94EE1124E630E00E94DC
:140CDA0052111501200E311E442455242A863B864C865D8609
:140CEE00A0902403B090250300912603109127030A191B0967
:140D020020912003309121030E94EE1124E630E00E94521164
:140D16001501200E311E442455242E823F82488659862E8089
:140D2A003F80488459843B01882477FC8094992487FC90947A
:140D3E00621473048404950438F481E080937E0182E08093FF
:140D5200EB0116C02A843B844C845D843B01882477FC80943E
:140D6600992487FC9094261437044804590430F422242092DB
:140D7A007E0183E08093EB017093800160937F0144275527A6
:140D8E000DC08CE790E0FA01EE0FFF1FE80FF91F22243324DF
:140DA200318220824F5F5F4F4038E0E05E0778F380917900FA
:140DB6008F5F80937900853000F42E960C9407120E942712AE
:140DCA00229744278091CE01813039F487E08093EB01222487
:140DDE002092830191C580916D00813081F4809165008130AA
:140DF20061F4222420926D002092650085E08093EB0181E057
:140E0600809383016BC080916D00813071F42090660022202A
:140E1A0051F4222420926D0085E08093EB0183E080938301BC
:140E2E0059C080916500813069F420906E00222049F4222430
:140E42002092650085E08093EB018093830148C080916F0002
:140E5600813019F5222420926F0033243092CC012092CB01FE
:140E6A002092CD012090EB012092EC0185E08093EB01809144
:140E7E0019038F5F80931903282E8A3018F480E0821518F00C
:140E920081E08093190382E08093830121C0809167008130B9
:140EA600C9F422242092670033243092CC012092CB01209206
:140EBA00CD0185E08093EB0180918401853021F486E0809319
:140ECE00830108C084E08093830104C0222702E00E94370DF4
:140EE2006091830177276130E0E07E07D1F06230E0E07E077B
:140EF60009F48CC06330E0E07E0709F4AFC06430E0E07E0782
:140F0A0009F4C3C06530E0E07E0709F4E3C16630E0E07E07FD
:140F1E0009F4B0C3F1C486E08093D70122242092D80182E016
:140F320090E09983888327ED31E000E210E00E940D0E84E0FC
:140F46008093D90122242092DA0182E090E09983888329EDC8
:140F5A0031E008E210E00E940D0E22242092DB0180E580938F
:140F6E00DC0182E090E0998388832BED31E000E310E00E94FB
:140F82000D0E22242092DD0184E18093DE0182E090E0998325
:140F960088832DED31E008E310E00E940D0E22242092DF01A1
:140FAA0083E08093E00182E090E0998388832FED31E000E4D2
:140FBE0010E00E940D0E83E08093E10122242092E20182E0DD
:140FD20090E09983888321EE31E000E610E00E940D0E8AE057
:140FE6008093D50122242092D60182E090E09983888325ED34
:140FFA0031E000E110E00E940D0E22242092830181E0809354
:14100E00CE017AC42090CB013090CC01222041F4332031F4C9
:14102200C10101969093CC018093CB018091CD01813059F4B5
:1410360022242092CD0133243092CC012092CB0184E0809305
:14104A00830140911903415082E0888321E0042F11270E9415
:14105E004F1052C4809119038F5F80931903282E8A3018F4A3
:1410720080E0821518F081E08093190340911903415082E0FB
:14108600888321E0042F11270E944F1039C440911903552778
:14109A004130E0E05E0749F14230E0E05E0709F453C0433058
:1410AE00E0E05E0709F466C04430E0E05E0709F479C04530A2
:1410C200E0E05E0709F48BC04630E0E05E0709F49EC0473040
:1410D600E0E05E0709F4B1C04830E0E05E0709F4C4C04930DC
:1410EA00E0E05E0709F4D7C0EEC02224332430921B0320925C
:1410FE001A032090CB013090CC01222041F4332031F4C10107
:1411120001969093CC018093CB018091CD01813069F4222430
:141126002092CD0133243092CC012092CB0182E08093EB0170
:14113A002092830182E0888321E000911A0310911B030E94EE
:14114E004F10DAC3209026033090270330921B0320921A031F
:14116200222433243092CC012092CB0182E0888321E00091D0
:141176001A0310911B030E944F10C2C3209024033090250344
:14118A0030921B0320921A03222433243092CC012092CB01F8
:14119E0082E0888321E000911A0310911B030E944F10AAC3F4
:1411B200209022033090230330921B0320921A032224332422
:1411C6003092CC012092CB01288221E000911A0310911B03F0
:1411DA000E944F1093C3209020033090210330921B03209261
:1411EE001A03222433243092CC012092CB0181E0888321E0B9
:1412020000911A0310911B030E944F107BC320901E0330909B
:141216001F0330921B0320921A03222433243092CC01209215
:14122A00CB0182E0888321E000911A0310911B030E944F1008
:14123E0063C320901E0330901F0330921B0320921A032224CE
:1412520033243092CC012092CB0182E0888321E000911A0308
:1412660010911B030E944F104BC3209028033090290330921D
:14127A001B0320921A03222433243092CC012092CB0182E067
:14128E00888321E000911A0310911B030E944F1033C320902C
:1412A20028033090290330921B0320921A0322243324309213
:1412B600CC012092CB0182E0888321E000911A0310911B03FE
:1412CA000E944F101BC3222433243092CC012092CB0114C3B0
:1412DE004091190355274130E0E05E0749F14230E0E05E072C
:1412F20009F431C04330E0E05E0709F468C04430E0E05E07A4
:1413060009F4A3C04530E0E05E0709F4DCC04630E0E05E07A5
:14131A0009F412C14730E0E05E0709F434C14830E0E05E07C4
:14132E0009F451C14930E0E05E0709F474C19AC122243324D4
:1413420030921B0320921A0382E0888321E081010E944F10F7
:141356008DC180911A0390911B030A9690931B0380931A03B7
:14136A00AC01883EE3E09E0728F484E690E08417950730F047
:14137E0084E690E090931B0380931A03209024033090250351
:1413920040901A0350901B032414350428F021E001E00E944F
:1413A600370D04C0222701E00E94370D20901A0330901B0370
:1413BA00309227032092260382E0888321E081010E944F1067
:1413CE0051C180911A0390911B030A9690931B0380931A037B
:1413E200AC01883EE3E09E0728F484E690E08417950750F0AF
:1413F60084E690E090931B0380931A0321E001E00E94370DD0
:14140A00209026033090270340901A0350901B034214530473
:14141E0028F021E001E00E94370D04C0222701E00E94370D06
:1414320020901A0330901B03309225032092240382E08883CB
:1414460021E081010E944F1011C180911A0390911B03059634
:14145A0090931B0380931A0384E690E020901A0330901B0388
:14146E008215930530F42224332430921B0320921A0320901B
:1414820020033090210340901A0350901B032414350428F0DB
:1414960021E001E00E94370D04C0222701E00E94370D2090F6
:1414AA001A0330901B0330922303209222032224288221E083
:1414BE0000911A0310911B030E944F10D3C080911A039091CA
:1414D2001B03059690931B0380931A0384E690E020901A0335
:1414E60030901B038215930530F42224332430921B03209292
:1414FA001A03209022033090230340901A0350901B034214C5
:14150E00530428F021E001E00E94370D04C0222701E00E9402
:14152200370D20901A0330901B03309221032092200381E0AA
:14153600888321E081010E944F1098C080911A0390911B034D
:14154A00019690931B0380931A0382EC91E020901A03309019
:14155E001B038215930530F483E090E090931B0380931A03C4
:1415720020901A0330901B0330921F0320921E0382E0888396
:1415860021E081010E944F1071C080911A0390911B03019797
:14159A0090931B0380931A038330E0E09E0730F482EC91E0B1
:1415AE0090931B0380931A0320901A0330901B0330921F0329
:1415C20020921E0382E0888321E081010E944F104FC0809131
:1415D6001A0390911B03019690931B0380931A03AC018FE081
:1415EA0097E28417950720F0483EE3E05E0730F488EE93E072
:1415FE0090931B0380931A0320901A0330901B0330922903CF
:141612002092280382E0888321E081010E944F1027C08091FE
:141626001A0390911B03019790931B0380931A03AC018FE02F
:14163A0097E28417950720F0483EE3E05E0730F48FE097E222
:14164E0090931B0380931A0320901A0330901B03309229037E
:141662002092280382E0888321E081010E944F102090830172
:141676002092840122242092830142C12090240330902503EB
:14168A00409026035090270324143504D8F030922703209272
:14169E00260380E991E08215930540F4C10184569040909343
:1416B2002503809324030AC080912603909127038C599F4FA0
:1416C6009093270380932603209020033090210340902203DB
:1416DA005090230324143504C8F0309223032092220382E3A9
:1416EE0090E08215930538F4C1010A9790932103809320033D
:1417020009C080912203909123030A9690932303809322036C
:141716002090CB013090CC01222041F4332031F4C10101966E
:14172A009093CC018093CB018091CD01813009F0E5C0222468
:14173E002092CD0133243092CC012092CB0124E630E0009108
:141752002603109127030E9452110093D70124E630E0009174
:141766002603109127030E9450110093D80182E090E099831E
:14177A00888327ED31E000E210E00E940D0E24E630E00091F1
:14178E002403109125030E9452110093D90124E630E000913A
:1417A2002403109125030E9450110093DA0182E090E09983E4
:1417B600888329ED31E008E210E00E940D0E24E630E00091AB
:1417CA002203109123030E9452110093DB0124E630E0009100
:1417DE002203109123030E9450110093DC0182E090E09983AA
:1417F20088832BED31E000E310E00E940D0E24E630E0009174
:141806002003109121030E9452110093DD0124E630E00091C5
:14181A002003109121030E9450110093DE0182E090E099836F
:14182E0088832DED31E008E310E00E940D0E24E630E000912D
:141842001E0310911F030E9452110093DF0124E630E000918B
:141856001E0310911F030E9450110093E00182E090E0998335
:14186A0088832FED31E000E410E00E940D0E24E630E00091F6
:14187E001C0310911D030E9452110093E10124E630E0009151
:141892001C0310911D030E9450110093E20182E090E09983FB
:1418A600888321EE31E000E610E00E940D0E24E630E00091C5
:1418BA002803109129030E9452110093D50124E630E0009109
:1418CE002803109129030E9450110093D60182E090E09983B3
:1418E200888325ED31E000E110E00E940D0E21E001E00E94B2
:1418F600370D21E002E00E94370D22242092830122960C94FD
:14190A002C1289B399278071907095958795959587959595E8
:14191E008795959587958130E0E09E0729F421E001E00E949C
:14193200490D04C0222701E00E94370D08952A923A928A9335
:141946009A93AA93EA932FB62A9283E882BF81E080932C03B6
:14195A00209085013324822D8F5F80938501822D8436A9F5AF
:14196E0022242092850181E080932B03209086013324822D08
:141982008F5F80938601822D8A3031F422242092860181E05B
:1419960080932A032090CB013090CC01222011F4332031F039
:1419AA00C10101969093CC018093CB018091CB019091CC0136
:1419BE008E31E0E09E0749F4222433243092CC012092CB010A
:1419D20081E08093CD0180912F03909130030196909330033B
:1419E60080932F0320902D0330902E03222011F4332031F01C
:1419FA00C101019690932E0380932D0380913303909134034A
:141A0E00019690933403809333038091310390913203019658
:141A2200909332038093310329902FBEE991A9919991899173
:141A36003990299018952A928A939A932FB62A928FEC8DBD01
:141A4A008CE28CBD809187018F5F809387018A3019F42224A2
:141A5E002092870129902FBE9991899129901895213041F464
:141A7200013011F4C1980BC0023049F4C29807C0013011F440
:141A8600C19A03C0023009F4C29A08954A935A93422F55274F
:141A9A004130E0E05E0729F04230E0E05E07F1F039C084EFA5
:141AAE0091E020903303309034038215930580F52224332495
:141AC2003092340320923303013029F482E028B2282628BA75
:141AD60023C0023009F584E028B2282628BA1CC08AEF90E0B6
:141AEA0020903103309032038215930598F4222433243092F5
:141AFE00320320923103013029F482E028B2282628BA06C039
:141B1200023021F484E028B2282628BA5991499108950E9407
:141B2600CE0E0E94151140C020902B03222031F00E94AE0175
:141B3A00222420922B03A8950E94860C4091EB015527413056
:141B4E00E0E05E07C9F04230E0E05E07C1F04330E0E05E07C5
:141B6200B9F04430E0E05E07B1F04530E0E05E07A9F04630E3
:141B7600E0E05E07A1F04730E0E05E0799F014C00E94740393
:141B8A0011C00E9468040EC00E947C040BC00E94870408C0B8
:141B9E000E94880405C00E94900402C00E949104BFCF0895E6
:141BB2000E943112A22EA80166274030E2E05E0790F402C057
:141BC60063950000E19B02C06436D0F35FBB4EBBADBAF89462
:141BDA00E29AE19A789402E310E00E94E50E0C9438120E94FE
:141BEE001D12AA2444270030E2E01E0760F4E19B06C0242E7C
:141C020033244F5F822D8436C0F31FBB0EBBE09AADB20A2DFA
:141C16000C9422120E94141259016801E884F984442755278B
:141C2A0009C0F50121915F018601040F151FBCDF4F5F5F4F10
:141C3E004E155F05A0F30C94FE110E943112AE80BF804427CC
:141C52005527662777271FC0C801840F951F8030E2E09E07D1
:141C6600D8F403C06F5F7F4F0000E19B04C06436E0E07E0720
:141C7A00B8F31801240E351E3FBA2EBAE09A2DB2F901219226
:141C8E009F01662777274F5F5F4F4A155B05F0F20C94381290
:141CA20022242BBA2ABA86E088BB8FEF87BB25BA8CEF84BB1D
:141CB60022BA80E381BB0895A8958FE181BD8FE081BD0895CD
:141CCA0083B7836083BF83E882BF89B7816089BF089583E092
:141CDE008EBD8FEC8DBD8CE28CBD89B7846089BF08952224DC
:141CF2002AB82BB886E880BD87E389B982E080BD88E18AB977
:141D06000895222426B827B880E888B981EE86B908950E9493
:141D1A004D12C02EAA24BB2444275527D898D998DA9880E41D
:141D2E0087B96C2D77276030670749F06130E0E07E0741F0EC
:141D42006230E0E07E0739F008C080E487B905C081E487B9B7
:141D560002C082E487B980E886B9369A349908C01A014F5F3C
:141D6A005F4FC101883EE3E09E07B0F3483EE3E05E0710F076
:141D7E0044275527A4B0BB2425B1332700E011E00E94EE1195
:141D9200A00EB11E85010C945612F89481DF8EDF93DF9BDFED
:141DA600A4DFAFDF222425BE2BBE85E089BF7894089502C0EE
:141DBA00015010402224332420163106CCF308952224332471
:141DCE003092300320922F0320902F033090300320163106E6
:141DE200C8F3089520902D0330902E03222041F4332031F4D5
:141DF600C101019690932E0380932D0320902D0330902E0318
:141E0A002016310640F02224332430922E0320922D0301E0D4
:141E1E0001C0002708950E9412125901680120E137E2860101
:141E32000E94501128EE33E00E945211602F28EE33E086012C
:141E46000E94501124E630E00E945211402F24E630E0860156
:141E5A000E9450112AE030E00E945211E02E2AE030E08601A3
:141E6E000E945011C02E0FD189E891E0E62FFF27E80FF91F63
:141E8200208028BADB9ADB988EEF88BBDC9ADC9885010E9410
:141E9600DC0EFDD089E891E0E42FFF27E80FF91F208028BAD5
:141EAA00DB9ADB988DEF88BBDC9ADC9885010E94DC0EEBD0C6
:141EBE0089E891E0EE2DFF27E80FF91F208028BADB9ADB9874
:141ED2008BEF88BBDC9ADC9885010E94DC0ED9D089E891E0B8
:141EE600EC2DFF27E80FF91F208028BADB9ADB9887EF88BB77
:141EFA00DC9ADC9885010E94DC0E0C9407120E9412125901FF
:141F0E00680124E630E08601012F11270E9450112AE030E030
:141F22000E945211602F2AE030E08601012F11270E9450110B
:141F3600402F24E630E0860110700E9450112AE030E00E9448
:141F4A005211E02E2AE030E0860110700E945011C02E9BD095
:141F5E0089E891E0E62FFF27E80FF91F208028BADB9ADB98D9
:141F72008EEF88BBDC9ADC9885010E94DC0E89D089E891E064
:141F8600E42FFF27E80FF91F208028BADB9ADB988DEF88BBD6
:141F9A00DC9ADC9885010E94DC0E77D089E891E0EE2DFF27CD
:141FAE00E80FF91F208028BADB9ADB988BEF88BBDC9ADC98FF
:141FC20085010E94DC0E65D089E891E0EC2DFF27E80FF91F94
:141FD600208028BADB9ADB9887EF88BBDC9ADC9885010E94C2
:141FEA00DC0E0C9407120E941212422F602FEA84CC84AE848A
:141FFE00BF8449D084E991E0E62FFF27E80FF91F208028BAC9
:14201200DB9ADB988EEF88BBDC9ADC9885010E94DC0E37D00F
:1420260084E991E0E42FFF27E80FF91F208028BADB9ADB9816
:14203A008DEF88BBDC9ADC9885010E94DC0E25D084E991E004
:14204E00EE2DFF27E80FF91F208028BADB9ADB988BEF88BB07
:14206200DC9ADC9885010E94DC0E13D084E991E0EC2DFF276E
:14207600E80FF91F208028BADB9ADB9887EF88BBDC9ADC983A
:14208A0085010E94DC0E0C9407128FE788BBDC9ADC98089537
:14209E003A932A930E94121268012497E88884E590E0FE0172
:1420B20004E010E0FA93EA939A938A930E94681266274427DE
:1420C600AA2420E137E286010E94501128EE33E00E94521166
:1420DA00088328EE33E086010E94501124E630E00E94521195
:1420EE00098324E630E086010E9450112AE030E00E9452118F
:142102000A832AE030E086010E9450110B8328802220B9F473
:142116008AE088832980222091F4EE2019F48BE0898308C076
:14212A008E2D813019F48CE0898302C08AE089832A8022208C
:14213E0011F48AE08A830E84002019F4AD98AC9A08C08E85EC
:14215200813019F4AC98AD9A02C0AD98AC9A44271AC0CE01CF
:14216600E42FFF27E80FF91FE081FF2781EA91E0E80FF91FAB
:14217A00A080662709C0AF98A7FE02C0AE9A01C0AE98AF9A95
:14218E00AA0C63956830A8F34395443020F324960E94071288
:1421A200229608950E941212E22E602F2497CE84A8884A895F
:1421B60088E590E0FE0104E010E0FA93EA939A938A930E946F
:1421CA0068126883E982CA82AB8266271BC0CE01E62FFF2746
:1421DE00E80FF91FE081FF278EEA91E0E80FF91FA080CC244F
:1421F20009C0AF98A7FE02C0AE9A01C0AE98AF9AAA0CC394BD
:142206008C2D8830A0F36395643018F3442319F4AD98AC9A2A
:14221A0004C0413011F4AC98AD9A24960C94071222243324DB
:14222E003092340320923303309232032092310330923003E9
:1422420020922F0330922E0320922D0320922C0320922B030E
:1422560020922A033092290320922803309227032092260303
:14226A003092250320922403309223032092220330922103F8
:14227E002092200330921F0320921E0330921D0320921C030D
:142292002092190330921B0320921A030895689401C0E894E5
:1422A600EA92FA928A93EE24FF2480E1000F111FEE1CFF1C05
:1422BA00E216F30618F0E21AF30A03958A95A1F716F40E2D8A
:1422CE001F2D8991F990E9900895E89401C0689430D0CC24CE
:1422E20009C0E89401C068942AD037FD0E945F12B7FD52D0CF
:1422F600772488249924AA24BB2442D0C1F045D0B1F0E8E2E0
:14230A00000F111F221F331F771C881C991CAA1CBB1C8816C6
:14231E009906AA06BB0628F0881A990AAA0ABB0A0395EA95AE
:1423320059F726F4082D192D2A2D3B2D13C07A928A929A92CC
:14234600AA92BA92CA92EA938A939A93AA93BA938B859C851D
:14235A00AD85BE85C32E0EF0CB260895C7FC0E945F12B9915D
:14236E00A99199918991E991C990B990A9909990899079903D
:1423820024960895E02FE12BE22BE32B0895E82FE92BEA2BDD
:14239600EB2B089580959095A095B0958F5F9F4FAF4FBF4FE4
:1423AA000895689401C0E8942A93FA92EA92FF24EE2420E14E
:1423BE00000FFF1CEE1CE11610F0E11A03952A95B9F70EF4DC
:1423D2000E2DE990F990299108950A921A928A939A93029F30
:1423E600C001129F900D039F900D8C01999189911990099082
:1423FA000895A990B990C990D990E990F9904991599108958B
:14240E00A990B990C990D990E990F9904991599169917991AC
:1424220008957A936A935A934A93FA92EA92DA92CA92BA9219
:14243600AA9208955A934A93BA92AA920895A990B99049916E
:14244A00599108957A936A935A934A930895499159916991C8
:14245E00799108957A936A935A934A93BA92AA920895A99091
:14247200B990499159916991799108955A934A93DA92CA9216
:14248600BA92AA920895A990B990C990D99049915991089578
:14249A007A936A935A934A93DA92CA92BA92AA920895A99034
:1424AE00B990C990D990499159916991799108950095109570
:1424C200209530950F5F1F4F2F4F3F4F0895AA93BA93EA9300
:1424D600FA930A92AF81B885ED81FE810030010731F0C895B9
:1424EA000D92319601501040F7CF0990F991E991B991A991F0
:0424FE002496089583
:00000001FF
